{
    "_format": "hh-sol-artifact-1",
    "contractName": "web3rsvp",
    "sourceName": "contracts/web3rsvp.sol",
    "abi": [
        {
            "anonymous": false,
            "inputs": [
                {
                    "indexed": false,
                    "internalType": "bytes32",
                    "name": "eventID",
                    "type": "bytes32"
                },
                {
                    "indexed": false,
                    "internalType": "address",
                    "name": "attendeeAddress",
                    "type": "address"
                }
            ],
            "name": "ConfirmedAttendee",
            "type": "event"
        },
        {
            "anonymous": false,
            "inputs": [
                {
                    "indexed": false,
                    "internalType": "bytes32",
                    "name": "eventID",
                    "type": "bytes32"
                }
            ],
            "name": "DepositsPaidOut",
            "type": "event"
        },
        {
            "anonymous": false,
            "inputs": [
                {
                    "indexed": false,
                    "internalType": "bytes32",
                    "name": "eventID",
                    "type": "bytes32"
                },
                {
                    "indexed": false,
                    "internalType": "address",
                    "name": "creatorAddress",
                    "type": "address"
                },
                {
                    "indexed": false,
                    "internalType": "uint256",
                    "name": "eventTimestamp",
                    "type": "uint256"
                },
                {
                    "indexed": false,
                    "internalType": "uint256",
                    "name": "maxCapacity",
                    "type": "uint256"
                },
                {
                    "indexed": false,
                    "internalType": "uint256",
                    "name": "deposit",
                    "type": "uint256"
                },
                {
                    "indexed": false,
                    "internalType": "string",
                    "name": "eventDataCID",
                    "type": "string"
                }
            ],
            "name": "NewEventCreated",
            "type": "event"
        },
        {
            "anonymous": false,
            "inputs": [
                {
                    "indexed": false,
                    "internalType": "bytes32",
                    "name": "eventID",
                    "type": "bytes32"
                },
                {
                    "indexed": false,
                    "internalType": "address",
                    "name": "attendeeAddress",
                    "type": "address"
                }
            ],
            "name": "NewRsvp",
            "type": "event"
        },
        {
            "inputs": [
                {
                    "internalType": "bytes32",
                    "name": "eventId",
                    "type": "bytes32"
                }
            ],
            "name": "confirmAllAttendees",
            "outputs": [],
            "stateMutability": "nonpayable",
            "type": "function"
        },
        {
            "inputs": [
                {
                    "internalType": "bytes32",
                    "name": "eventId",
                    "type": "bytes32"
                },
                {
                    "internalType": "address",
                    "name": "attendee",
                    "type": "address"
                }
            ],
            "name": "confirmAttendee",
            "outputs": [],
            "stateMutability": "nonpayable",
            "type": "function"
        },
        {
            "inputs": [
                {
                    "internalType": "uint256",
                    "name": "eventTimestamp",
                    "type": "uint256"
                },
                {
                    "internalType": "uint256",
                    "name": "deposit",
                    "type": "uint256"
                },
                {
                    "internalType": "uint256",
                    "name": "maxCapacity",
                    "type": "uint256"
                },
                {
                    "internalType": "string",
                    "name": "eventDataCID",
                    "type": "string"
                }
            ],
            "name": "createNewEvent",
            "outputs": [],
            "stateMutability": "nonpayable",
            "type": "function"
        },
        {
            "inputs": [
                {
                    "internalType": "bytes32",
                    "name": "eventId",
                    "type": "bytes32"
                }
            ],
            "name": "createNewRSVP",
            "outputs": [],
            "stateMutability": "payable",
            "type": "function"
        },
        {
            "inputs": [
                {
                    "internalType": "bytes32",
                    "name": "",
                    "type": "bytes32"
                }
            ],
            "name": "idToEvent",
            "outputs": [
                {
                    "internalType": "bytes32",
                    "name": "evenTd",
                    "type": "bytes32"
                },
                {
                    "internalType": "string",
                    "name": "eventDataCID",
                    "type": "string"
                },
                {
                    "internalType": "address",
                    "name": "eventOwner",
                    "type": "address"
                },
                {
                    "internalType": "uint256",
                    "name": "eventTimestamp",
                    "type": "uint256"
                },
                {
                    "internalType": "uint256",
                    "name": "deposit",
                    "type": "uint256"
                },
                {
                    "internalType": "uint256",
                    "name": "maxCapacity",
                    "type": "uint256"
                },
                {
                    "internalType": "bool",
                    "name": "paidOut",
                    "type": "bool"
                }
            ],
            "stateMutability": "view",
            "type": "function"
        },
        {
            "inputs": [
                {
                    "internalType": "bytes32",
                    "name": "eventId",
                    "type": "bytes32"
                }
            ],
            "name": "withdrawUnclaimedDeposits",
            "outputs": [],
            "stateMutability": "nonpayable",
            "type": "function"
        }
    ],
    "bytecode": "0x608060405234801561001057600080fd5b50611e8c806100206000396000f3fe6080604052600436106100545760003560e01c806292098c1461005957806317f0165a146100825780636dcdf2cd1461009e57806379747571146100c7578063909ef021146100f0578063acdbe01214610133575b600080fd5b34801561006557600080fd5b50610080600480360381019061007b91906111ad565b61015c565b005b61009c6004803603810190610097919061126b565b6103d0565b005b3480156100aa57600080fd5b506100c560048036038101906100c091906112f6565b61063e565b005b3480156100d357600080fd5b506100ee60048036038101906100e9919061126b565b610b17565b005b3480156100fc57600080fd5b506101176004803603810190610112919061126b565b610dc2565b60405161012a9796959493929190611417565b60405180910390f35b34801561013f57600080fd5b5061015a6004803603810190610155919061126b565b610eb9565b005b600033308787876040516020016101779594939291906114f6565b60405160208183030381529060405280519060200120905060608060405180610120016040528084815260200186868080601f016020809104026020016040519081016040528093929190818152602001838380828437600081840152601f19601f8201169050808301925050505050505081526020013373ffffffffffffffffffffffffffffffffffffffff16815260200189815260200188815260200187815260200183815260200182815260200160001515815250600080858152602001908152602001600020600082015181600001556020820151816001019080519060200190610267929190610fdb565b5060408201518160020160006101000a81548173ffffffffffffffffffffffffffffffffffffffff021916908373ffffffffffffffffffffffffffffffffffffffff160217905550606082015181600301556080820151816004015560a0820151816005015560c08201518160060190805190602001906102e9929190611061565b5060e0820151816007019080519060200190610306929190611061565b506101008201518160080160006101000a81548160ff02191690831515021790555090505060008060008581526020019081526020016000206003015414610383576040517f08c379a000000000000000000000000000000000000000000000000000000000815260040161037a906115a1565b60405180910390fd5b7f2553138c3f9c9008f266dbdbe9fc64f5b71e098d06ef714a190a65a8b9fc6bf383338a898b8a8a6040516103be97969594939291906115fd565b60405180910390a15050505050505050565b60008060008381526020019081526020016000209050806004015434101561042d576040517f08c379a0000000000000000000000000000000000000000000000000000000008152600401610424906116d9565b60405180910390fd5b8060030154421115610474576040517f08c379a000000000000000000000000000000000000000000000000000000000815260040161046b90611745565b60405180910390fd5b80600501548160060180549050106104c1576040517f08c379a00000000000000000000000000000000000000000000000000000000081526004016104b8906117b1565b60405180910390fd5b60005b81600601805490508160ff16101561059b573373ffffffffffffffffffffffffffffffffffffffff16826006018260ff1681548110610506576105056117d1565b5b9060005260206000200160009054906101000a900473ffffffffffffffffffffffffffffffffffffffff1673ffffffffffffffffffffffffffffffffffffffff161415610588576040517f08c379a000000000000000000000000000000000000000000000000000000000815260040161057f9061184c565b60405180910390fd5b8080610593906118a8565b9150506104c4565b5080600601339080600181540180825580915050600190039060005260206000200160009091909190916101000a81548173ffffffffffffffffffffffffffffffffffffffff021916908373ffffffffffffffffffffffffffffffffffffffff1602179055507ff135fe4b8ce34a516f7df83bf9fd8f2ebcd44b040aef95d6036b74b2f29c52e482336040516106329291906118d2565b60405180910390a15050565b600080600084815260200190815260200160002090508060020160009054906101000a900473ffffffffffffffffffffffffffffffffffffffff1673ffffffffffffffffffffffffffffffffffffffff163373ffffffffffffffffffffffffffffffffffffffff16146106e6576040517f08c379a00000000000000000000000000000000000000000000000000000000081526004016106dd90611947565b60405180910390fd5b600080600090505b82600601805490508160ff1610156107d1578373ffffffffffffffffffffffffffffffffffffffff16836006018260ff16815481106107305761072f6117d1565b5b9060005260206000200160009054906101000a900473ffffffffffffffffffffffffffffffffffffffff1673ffffffffffffffffffffffffffffffffffffffff1614156107be57826006018160ff16815481106107905761078f6117d1565b5b9060005260206000200160009054906101000a900473ffffffffffffffffffffffffffffffffffffffff1691505b80806107c9906118a8565b9150506106ee565b508273ffffffffffffffffffffffffffffffffffffffff168173ffffffffffffffffffffffffffffffffffffffff1614610840576040517f08c379a0000000000000000000000000000000000000000000000000000000008152600401610837906119b3565b60405180910390fd5b60005b82600701805490508160ff16101561091a578373ffffffffffffffffffffffffffffffffffffffff16836007018260ff1681548110610885576108846117d1565b5b9060005260206000200160009054906101000a900473ffffffffffffffffffffffffffffffffffffffff1673ffffffffffffffffffffffffffffffffffffffff161415610907576040517f08c379a00000000000000000000000000000000000000000000000000000000081526004016108fe90611a1f565b60405180910390fd5b8080610912906118a8565b915050610843565b50600015158260080160009054906101000a900460ff16151514610973576040517f08c379a000000000000000000000000000000000000000000000000000000000815260040161096a90611a8b565b60405180910390fd5b81600701839080600181540180825580915050600190039060005260206000200160009091909190916101000a81548173ffffffffffffffffffffffffffffffffffffffff021916908373ffffffffffffffffffffffffffffffffffffffff16021790555060008373ffffffffffffffffffffffffffffffffffffffff168360040154604051610a0290611adc565b60006040518083038185875af1925050503d8060008114610a3f576040519150601f19603f3d011682016040523d82523d6000602084013e610a44565b606091505b5050905080610a975782600701805480610a6157610a60611af1565b5b6001900381819060005260206000200160006101000a81549073ffffffffffffffffffffffffffffffffffffffff021916905590555b80610ad7576040517f08c379a0000000000000000000000000000000000000000000000000000000008152600401610ace90611b6c565b60405180910390fd5b7ff8d1583a733d83bdd3ef5464129d0a95a36d62b382d31c6d0467a61f4264381b8585604051610b089291906118d2565b60405180910390a15050505050565b600080600083815260200190815260200160002090508060080160009054906101000a900460ff1615610b7f576040517f08c379a0000000000000000000000000000000000000000000000000000000008152600401610b7690611bfe565b60405180910390fd5b62093a808160030154610b929190611c1e565b421015610bd4576040517f08c379a0000000000000000000000000000000000000000000000000000000008152600401610bcb90611cc0565b60405180910390fd5b8060020160009054906101000a900473ffffffffffffffffffffffffffffffffffffffff1673ffffffffffffffffffffffffffffffffffffffff163373ffffffffffffffffffffffffffffffffffffffff1614610c66576040517f08c379a0000000000000000000000000000000000000000000000000000000008152600401610c5d90611947565b60405180910390fd5b600081600701805490508260060180549050610c829190611ce0565b90506000826004015482610c969190611d14565b905060018360080160006101000a81548160ff02191690831515021790555060003373ffffffffffffffffffffffffffffffffffffffff1682604051610cdb90611adc565b60006040518083038185875af1925050503d8060008114610d18576040519150601f19603f3d011682016040523d82523d6000602084013e610d1d565b606091505b5050905080610d445760008460080160006101000a81548160ff0219169083151502179055505b80610d84576040517f08c379a0000000000000000000000000000000000000000000000000000000008152600401610d7b90611dba565b60405180910390fd5b7f393073ea1365f611c3d2f240c992960d2b99dc81715555d3fc40fc55ba80af9c85604051610db39190611dda565b60405180910390a15050505050565b6000602052806000526040600020600091509050806000015490806001018054610deb90611e24565b80601f0160208091040260200160405190810160405280929190818152602001828054610e1790611e24565b8015610e645780601f10610e3957610100808354040283529160200191610e64565b820191906000526020600020905b815481529060010190602001808311610e4757829003601f168201915b5050505050908060020160009054906101000a900473ffffffffffffffffffffffffffffffffffffffff16908060030154908060040154908060050154908060080160009054906101000a900460ff16905087565b600080600083815260200190815260200160002090503373ffffffffffffffffffffffffffffffffffffffff168160020160009054906101000a900473ffffffffffffffffffffffffffffffffffffffff1673ffffffffffffffffffffffffffffffffffffffff1614610f61576040517f08c379a0000000000000000000000000000000000000000000000000000000008152600401610f5890611947565b60405180910390fd5b60005b81600601805490508160ff161015610fd657610fc383836006018360ff1681548110610f9357610f926117d1565b5b9060005260206000200160009054906101000a900473ffffffffffffffffffffffffffffffffffffffff1661063e565b8080610fce906118a8565b915050610f64565b505050565b828054610fe790611e24565b90600052602060002090601f0160209004810192826110095760008555611050565b82601f1061102257805160ff1916838001178555611050565b82800160010185558215611050579182015b8281111561104f578251825591602001919060010190611034565b5b50905061105d91906110eb565b5090565b8280548282559060005260206000209081019282156110da579160200282015b828111156110d95782518260006101000a81548173ffffffffffffffffffffffffffffffffffffffff021916908373ffffffffffffffffffffffffffffffffffffffff16021790555091602001919060010190611081565b5b5090506110e791906110eb565b5090565b5b808211156111045760008160009055506001016110ec565b5090565b600080fd5b600080fd5b6000819050919050565b61112581611112565b811461113057600080fd5b50565b6000813590506111428161111c565b92915050565b600080fd5b600080fd5b600080fd5b60008083601f84011261116d5761116c611148565b5b8235905067ffffffffffffffff81111561118a5761118961114d565b5b6020830191508360018202830111156111a6576111a5611152565b5b9250929050565b6000806000806000608086880312156111c9576111c8611108565b5b60006111d788828901611133565b95505060206111e888828901611133565b94505060406111f988828901611133565b935050606086013567ffffffffffffffff81111561121a5761121961110d565b5b61122688828901611157565b92509250509295509295909350565b6000819050919050565b61124881611235565b811461125357600080fd5b50565b6000813590506112658161123f565b92915050565b60006020828403121561128157611280611108565b5b600061128f84828501611256565b91505092915050565b600073ffffffffffffffffffffffffffffffffffffffff82169050919050565b60006112c382611298565b9050919050565b6112d3816112b8565b81146112de57600080fd5b50565b6000813590506112f0816112ca565b92915050565b6000806040838503121561130d5761130c611108565b5b600061131b85828601611256565b925050602061132c858286016112e1565b9150509250929050565b61133f81611235565b82525050565b600081519050919050565b600082825260208201905092915050565b60005b8381101561137f578082015181840152602081019050611364565b8381111561138e576000848401525b50505050565b6000601f19601f8301169050919050565b60006113b082611345565b6113ba8185611350565b93506113ca818560208601611361565b6113d381611394565b840191505092915050565b6113e7816112b8565b82525050565b6113f681611112565b82525050565b60008115159050919050565b611411816113fc565b82525050565b600060e08201905061142c600083018a611336565b818103602083015261143e81896113a5565b905061144d60408301886113de565b61145a60608301876113ed565b61146760808301866113ed565b61147460a08301856113ed565b61148160c0830184611408565b98975050505050505050565b60008160601b9050919050565b60006114a58261148d565b9050919050565b60006114b78261149a565b9050919050565b6114cf6114ca826112b8565b6114ac565b82525050565b6000819050919050565b6114f06114eb82611112565b6114d5565b82525050565b600061150282886114be565b60148201915061151282876114be565b60148201915061152282866114df565b60208201915061153282856114df565b60208201915061154282846114df565b6020820191508190509695505050505050565b7f414c524541445920524547495354455245440000000000000000000000000000600082015250565b600061158b601283611350565b915061159682611555565b602082019050919050565b600060208201905081810360008301526115ba8161157e565b9050919050565b82818337600083830152505050565b60006115dc8385611350565b93506115e98385846115c1565b6115f283611394565b840190509392505050565b600060c082019050611612600083018a611336565b61161f60208301896113de565b61162c60408301886113ed565b61163960608301876113ed565b61164660808301866113ed565b81810360a08301526116598184866115d0565b905098975050505050505050565b7f596f7520646f206e6f7420686176652073756666696369656e742062616c616e60008201527f636520746f205253565021000000000000000000000000000000000000000000602082015250565b60006116c3602b83611350565b91506116ce82611667565b604082019050919050565b600060208201905081810360008301526116f2816116b6565b9050919050565b7f416c726561647920537461727465640000000000000000000000000000000000600082015250565b600061172f600f83611350565b915061173a826116f9565b602082019050919050565b6000602082019050818103600083015261175e81611722565b9050919050565b7f416c72656164792046696c6c6564000000000000000000000000000000000000600082015250565b600061179b600e83611350565b91506117a682611765565b602082019050919050565b600060208201905081810360008301526117ca8161178e565b9050919050565b7f4e487b7100000000000000000000000000000000000000000000000000000000600052603260045260246000fd5b7f5573657220616c726561647920636f6e6669726d656421000000000000000000600082015250565b6000611836601783611350565b915061184182611800565b602082019050919050565b6000602082019050818103600083015261186581611829565b9050919050565b7f4e487b7100000000000000000000000000000000000000000000000000000000600052601160045260246000fd5b600060ff82169050919050565b60006118b38261189b565b915060ff8214156118c7576118c661186c565b5b600182019050919050565b60006040820190506118e76000830185611336565b6118f460208301846113de565b9392505050565b7f4e6f7420417574686f72697a6564000000000000000000000000000000000000600082015250565b6000611931600e83611350565b915061193c826118fb565b602082019050919050565b6000602082019050818103600083015261196081611924565b9050919050565b7f417474656e646565206e6f7420466f756e640000000000000000000000000000600082015250565b600061199d601283611350565b91506119a882611967565b602082019050919050565b600060208201905081810360008301526119cc81611990565b9050919050565b7f416c726561647920436865636b656420494e0000000000000000000000000000600082015250565b6000611a09601283611350565b9150611a14826119d3565b602082019050919050565b60006020820190508181036000830152611a38816119fc565b9050919050565b7f416c72656164792050616964204f757421000000000000000000000000000000600082015250565b6000611a75601183611350565b9150611a8082611a3f565b602082019050919050565b60006020820190508181036000830152611aa481611a68565b9050919050565b600081905092915050565b50565b6000611ac6600083611aab565b9150611ad182611ab6565b600082019050919050565b6000611ae782611ab9565b9150819050919050565b7f4e487b7100000000000000000000000000000000000000000000000000000000600052603160045260246000fd5b7f4661696c656420746f2073656e64204574686572000000000000000000000000600082015250565b6000611b56601483611350565b9150611b6182611b20565b602082019050919050565b60006020820190508181036000830152611b8581611b49565b9050919050565b7f416c726561647920706169642c204e6f20756e636c61696d6564206465706f7360008201527f6974730000000000000000000000000000000000000000000000000000000000602082015250565b6000611be8602383611350565b9150611bf382611b8c565b604082019050919050565b60006020820190508181036000830152611c1781611bdb565b9050919050565b6000611c2982611112565b9150611c3483611112565b9250827fffffffffffffffffffffffffffffffffffffffffffffffffffffffffffffffff03821115611c6957611c6861186c565b5b828201905092915050565b7f546f6f204561726c790000000000000000000000000000000000000000000000600082015250565b6000611caa600983611350565b9150611cb582611c74565b602082019050919050565b60006020820190508181036000830152611cd981611c9d565b9050919050565b6000611ceb82611112565b9150611cf683611112565b925082821015611d0957611d0861186c565b5b828203905092915050565b6000611d1f82611112565b9150611d2a83611112565b9250817fffffffffffffffffffffffffffffffffffffffffffffffffffffffffffffffff0483118215151615611d6357611d6261186c565b5b828202905092915050565b7f46616c69656420746f2073656e64204574686572000000000000000000000000600082015250565b6000611da4601483611350565b9150611daf82611d6e565b602082019050919050565b60006020820190508181036000830152611dd381611d97565b9050919050565b6000602082019050611def6000830184611336565b92915050565b7f4e487b7100000000000000000000000000000000000000000000000000000000600052602260045260246000fd5b60006002820490506001821680611e3c57607f821691505b60208210811415611e5057611e4f611df5565b5b5091905056fea2646970667358221220838e983b0190e642de705c5defdd03dd70b3a6b0a313a8015d44dc4b328098fe64736f6c63430008090033",
    "linkReferences": {},
    "deployedLinkReferences": {}
}